{
  "_format": "hh-sol-artifact-1",
  "contractName": "CarbonTrader",
  "sourceName": "contracts/CarbonTrader.sol",
  "abi": [
    {
      "inputs": [
        {
          "internalType": "address",
          "name": "usdtTokenAddress",
          "type": "address"
        }
      ],
      "stateMutability": "nonpayable",
      "type": "constructor"
    },
    {
      "inputs": [],
      "name": "CarbonTrader__NotOwner",
      "type": "error"
    },
    {
      "inputs": [],
      "name": "CarbonTrader__PramaError",
      "type": "error"
    },
    {
      "inputs": [],
      "name": "CarbonTrader__TransferFailed",
      "type": "error"
    },
    {
      "inputs": [
        {
          "internalType": "string",
          "name": "tradeID",
          "type": "string"
        },
        {
          "internalType": "uint256",
          "name": "amount",
          "type": "uint256"
        },
        {
          "internalType": "string",
          "name": "info",
          "type": "string"
        }
      ],
      "name": "deposit",
      "outputs": [],
      "stateMutability": "nonpayable",
      "type": "function"
    },
    {
      "inputs": [
        {
          "internalType": "address",
          "name": "user",
          "type": "address"
        }
      ],
      "name": "destroyAllAllowance",
      "outputs": [],
      "stateMutability": "nonpayable",
      "type": "function"
    },
    {
      "inputs": [
        {
          "internalType": "address",
          "name": "user",
          "type": "address"
        },
        {
          "internalType": "uint256",
          "name": "destroyAmount",
          "type": "uint256"
        }
      ],
      "name": "destroyAllowance",
      "outputs": [],
      "stateMutability": "nonpayable",
      "type": "function"
    },
    {
      "inputs": [
        {
          "internalType": "string",
          "name": "tradeID",
          "type": "string"
        },
        {
          "internalType": "uint256",
          "name": "allowanceAmount",
          "type": "uint256"
        },
        {
          "internalType": "uint256",
          "name": "additionalAmountToPay",
          "type": "uint256"
        }
      ],
      "name": "finalizeAuctionAndTransferCarbon",
      "outputs": [],
      "stateMutability": "nonpayable",
      "type": "function"
    },
    {
      "inputs": [
        {
          "internalType": "address",
          "name": "user",
          "type": "address"
        },
        {
          "internalType": "uint256",
          "name": "freezedAmount",
          "type": "uint256"
        }
      ],
      "name": "freezeAllowance",
      "outputs": [],
      "stateMutability": "nonpayable",
      "type": "function"
    },
    {
      "inputs": [
        {
          "internalType": "address",
          "name": "user",
          "type": "address"
        }
      ],
      "name": "getAllowance",
      "outputs": [
        {
          "internalType": "uint256",
          "name": "",
          "type": "uint256"
        }
      ],
      "stateMutability": "view",
      "type": "function"
    },
    {
      "inputs": [
        {
          "internalType": "string",
          "name": "tradeID",
          "type": "string"
        }
      ],
      "name": "getBidInfo",
      "outputs": [
        {
          "internalType": "string",
          "name": "",
          "type": "string"
        }
      ],
      "stateMutability": "view",
      "type": "function"
    },
    {
      "inputs": [
        {
          "internalType": "address",
          "name": "user",
          "type": "address"
        }
      ],
      "name": "getFrozenAllowance",
      "outputs": [
        {
          "internalType": "uint256",
          "name": "",
          "type": "uint256"
        }
      ],
      "stateMutability": "view",
      "type": "function"
    },
    {
      "inputs": [],
      "name": "getOwner",
      "outputs": [
        {
          "internalType": "address",
          "name": "",
          "type": "address"
        }
      ],
      "stateMutability": "view",
      "type": "function"
    },
    {
      "inputs": [
        {
          "internalType": "string",
          "name": "tradeID",
          "type": "string"
        }
      ],
      "name": "getTrade",
      "outputs": [
        {
          "internalType": "address",
          "name": "",
          "type": "address"
        },
        {
          "internalType": "uint256",
          "name": "",
          "type": "uint256"
        },
        {
          "internalType": "uint256",
          "name": "",
          "type": "uint256"
        },
        {
          "internalType": "uint256",
          "name": "",
          "type": "uint256"
        },
        {
          "internalType": "uint256",
          "name": "",
          "type": "uint256"
        },
        {
          "internalType": "uint256",
          "name": "",
          "type": "uint256"
        }
      ],
      "stateMutability": "view",
      "type": "function"
    },
    {
      "inputs": [
        {
          "internalType": "address",
          "name": "user",
          "type": "address"
        },
        {
          "internalType": "uint256",
          "name": "amount",
          "type": "uint256"
        }
      ],
      "name": "issueAllowance",
      "outputs": [],
      "stateMutability": "nonpayable",
      "type": "function"
    },
    {
      "inputs": [
        {
          "internalType": "string",
          "name": "tradeID",
          "type": "string"
        }
      ],
      "name": "refundDeposit",
      "outputs": [],
      "stateMutability": "nonpayable",
      "type": "function"
    },
    {
      "inputs": [
        {
          "internalType": "string",
          "name": "tradeID",
          "type": "string"
        },
        {
          "internalType": "string",
          "name": "info",
          "type": "string"
        }
      ],
      "name": "setBidInfo",
      "outputs": [],
      "stateMutability": "nonpayable",
      "type": "function"
    },
    {
      "inputs": [
        {
          "internalType": "string",
          "name": "tradeID",
          "type": "string"
        },
        {
          "internalType": "string",
          "name": "secret",
          "type": "string"
        }
      ],
      "name": "setBidSecret",
      "outputs": [],
      "stateMutability": "nonpayable",
      "type": "function"
    },
    {
      "inputs": [
        {
          "internalType": "string",
          "name": "tradeID",
          "type": "string"
        },
        {
          "internalType": "uint256",
          "name": "amount",
          "type": "uint256"
        },
        {
          "internalType": "uint256",
          "name": "startTimestamp",
          "type": "uint256"
        },
        {
          "internalType": "uint256",
          "name": "endTimestamp",
          "type": "uint256"
        },
        {
          "internalType": "uint256",
          "name": "minimumBidAmount",
          "type": "uint256"
        },
        {
          "internalType": "uint256",
          "name": "initPriceOfUnit",
          "type": "uint256"
        }
      ],
      "name": "startTrade",
      "outputs": [],
      "stateMutability": "nonpayable",
      "type": "function"
    },
    {
      "inputs": [
        {
          "internalType": "address",
          "name": "user",
          "type": "address"
        },
        {
          "internalType": "uint256",
          "name": "freezedAmount",
          "type": "uint256"
        }
      ],
      "name": "unfreezeAllowance",
      "outputs": [],
      "stateMutability": "nonpayable",
      "type": "function"
    },
    {
      "inputs": [],
      "name": "withdrawAuctionAmount",
      "outputs": [],
      "stateMutability": "nonpayable",
      "type": "function"
    }
  ],
  "bytecode": "0x60c06040523480156200001157600080fd5b506040516200213438038062002134833981810160405281019062000037919062000110565b3373ffffffffffffffffffffffffffffffffffffffff1660808173ffffffffffffffffffffffffffffffffffffffff16815250508073ffffffffffffffffffffffffffffffffffffffff1660a08173ffffffffffffffffffffffffffffffffffffffff16815250505062000142565b600080fd5b600073ffffffffffffffffffffffffffffffffffffffff82169050919050565b6000620000d882620000ab565b9050919050565b620000ea81620000cb565b8114620000f657600080fd5b50565b6000815190506200010a81620000df565b92915050565b600060208284031215620001295762000128620000a6565b5b60006200013984828501620000f9565b91505092915050565b60805160a051611f94620001a0600039600081816107e5015281816109c601528181610c9b01526113940152600081816104280152818161055c015281816106e301528181610b3201528181610dbc015261107a0152611f946000f3fe608060405234801561001057600080fd5b506004361061010a5760003560e01c8063733da7c8116100a25780639fa637a8116100715780639fa637a814610277578063d0606507146102ac578063d107a5cc146102c8578063d62b58ca146102e4578063eb5a662e146103005761010a565b8063733da7c81461021757806386f99e5e14610233578063893d20e81461023d5780638eae8d531461025b5761010a565b806364502cae116100de57806364502cae1461019357806368b377ca146101af57806369524d31146101cb57806369a83c84146101e75761010a565b80623997bd1461010f57806341e90ce61461013f578063459ccec71461015b5780634fe1912514610177575b600080fd5b61012960048036038101906101249190611616565b610330565b60405161013691906116de565b60405180910390f35b61015960048036038101906101549190611794565b610426565b005b610175600480360381019061017091906117d4565b61055a565b005b610191600480360381019061018c9190611801565b61066b565b005b6101ad60048036038101906101a89190611794565b6106e1565b005b6101c960048036038101906101c49190611879565b6107bf565b005b6101e560048036038101906101e09190611616565b610913565b005b61020160048036038101906101fc91906117d4565b610ae7565b60405161020e9190611913565b60405180910390f35b610231600480360381019061022c9190611794565b610b30565b005b61023b610c0e565b005b610245610db8565b604051610252919061193d565b60405180910390f35b61027560048036038101906102709190611958565b610de0565b005b610291600480360381019061028c9190611616565b610f83565b6040516102a396959493929190611a01565b60405180910390f35b6102c660048036038101906102c19190611801565b611002565b005b6102e260048036038101906102dd9190611794565b611078565b005b6102fe60048036038101906102f99190611a62565b6111ac565b005b61031a600480360381019061031591906117d4565b611474565b6040516103279190611913565b60405180910390f35b606060006003836040516103449190611b0d565b908152602001604051809103902090508060070160003373ffffffffffffffffffffffffffffffffffffffff1673ffffffffffffffffffffffffffffffffffffffff16815260200190815260200160002080546103a090611b53565b80601f01602080910402602001604051908101604052809291908181526020018280546103cc90611b53565b80156104195780601f106103ee57610100808354040283529160200191610419565b820191906000526020600020905b8154815290600101906020018083116103fc57829003601f168201915b5050505050915050919050565b7f000000000000000000000000000000000000000000000000000000000000000073ffffffffffffffffffffffffffffffffffffffff163373ffffffffffffffffffffffffffffffffffffffff16146104ab576040517fcf84d5e300000000000000000000000000000000000000000000000000000000815260040160405180910390fd5b806000808473ffffffffffffffffffffffffffffffffffffffff1673ffffffffffffffffffffffffffffffffffffffff16815260200190815260200160002060008282546104f99190611bb3565b9250508190555080600160008473ffffffffffffffffffffffffffffffffffffffff1673ffffffffffffffffffffffffffffffffffffffff168152602001908152602001600020600082825461054f9190611be7565b925050819055505050565b7f000000000000000000000000000000000000000000000000000000000000000073ffffffffffffffffffffffffffffffffffffffff163373ffffffffffffffffffffffffffffffffffffffff16146105df576040517fcf84d5e300000000000000000000000000000000000000000000000000000000815260040160405180910390fd5b60008060008373ffffffffffffffffffffffffffffffffffffffff1673ffffffffffffffffffffffffffffffffffffffff168152602001908152602001600020819055506000600160008373ffffffffffffffffffffffffffffffffffffffff1673ffffffffffffffffffffffffffffffffffffffff1681526020019081526020016000208190555050565b600060038360405161067d9190611b0d565b90815260200160405180910390209050818160080160003373ffffffffffffffffffffffffffffffffffffffff1673ffffffffffffffffffffffffffffffffffffffff16815260200190815260200160002090816106db9190611dc7565b50505050565b7f000000000000000000000000000000000000000000000000000000000000000073ffffffffffffffffffffffffffffffffffffffff163373ffffffffffffffffffffffffffffffffffffffff1614610766576040517fcf84d5e300000000000000000000000000000000000000000000000000000000815260040160405180910390fd5b806000808473ffffffffffffffffffffffffffffffffffffffff1673ffffffffffffffffffffffffffffffffffffffff16815260200190815260200160002060008282546107b49190611be7565b925050819055505050565b60006003846040516107d19190611b0d565b9081526020016040518091039020905060007f000000000000000000000000000000000000000000000000000000000000000073ffffffffffffffffffffffffffffffffffffffff166323b872dd3330876040518463ffffffff1660e01b815260040161084093929190611e99565b6020604051808303816000875af115801561085f573d6000803e3d6000fd5b505050506040513d601f19601f820116820180604052508101906108839190611f08565b9050806108bc576040517f43280ec900000000000000000000000000000000000000000000000000000000815260040160405180910390fd5b838260060160003373ffffffffffffffffffffffffffffffffffffffff1673ffffffffffffffffffffffffffffffffffffffff1681526020019081526020016000208190555061090c8584611002565b5050505050565b60006003826040516109259190611b0d565b9081526020016040518091039020905060008160060160003373ffffffffffffffffffffffffffffffffffffffff1673ffffffffffffffffffffffffffffffffffffffff16815260200190815260200160002054905060008260060160003373ffffffffffffffffffffffffffffffffffffffff1673ffffffffffffffffffffffffffffffffffffffff1681526020019081526020016000208190555060007f000000000000000000000000000000000000000000000000000000000000000073ffffffffffffffffffffffffffffffffffffffff1663a9059cbb33846040518363ffffffff1660e01b8152600401610a1f929190611f35565b6020604051808303816000875af1158015610a3e573d6000803e3d6000fd5b505050506040513d601f19601f82011682018060405250810190610a629190611f08565b905080610ae157818360060160003373ffffffffffffffffffffffffffffffffffffffff1673ffffffffffffffffffffffffffffffffffffffff168152602001908152602001600020819055506040517f43280ec900000000000000000000000000000000000000000000000000000000815260040160405180910390fd5b50505050565b6000600160008373ffffffffffffffffffffffffffffffffffffffff1673ffffffffffffffffffffffffffffffffffffffff168152602001908152602001600020549050919050565b7f000000000000000000000000000000000000000000000000000000000000000073ffffffffffffffffffffffffffffffffffffffff163373ffffffffffffffffffffffffffffffffffffffff1614610bb5576040517fcf84d5e300000000000000000000000000000000000000000000000000000000815260040160405180910390fd5b806000808473ffffffffffffffffffffffffffffffffffffffff1673ffffffffffffffffffffffffffffffffffffffff1681526020019081526020016000206000828254610c039190611bb3565b925050819055505050565b6000600260003373ffffffffffffffffffffffffffffffffffffffff1673ffffffffffffffffffffffffffffffffffffffff1681526020019081526020016000205490506000600260003373ffffffffffffffffffffffffffffffffffffffff1673ffffffffffffffffffffffffffffffffffffffff1681526020019081526020016000208190555060007f000000000000000000000000000000000000000000000000000000000000000073ffffffffffffffffffffffffffffffffffffffff1663a9059cbb33846040518363ffffffff1660e01b8152600401610cf4929190611f35565b6020604051808303816000875af1158015610d13573d6000803e3d6000fd5b505050506040513d601f19601f82011682018060405250810190610d379190611f08565b905080610db45781600260003373ffffffffffffffffffffffffffffffffffffffff1673ffffffffffffffffffffffffffffffffffffffff168152602001908152602001600020819055506040517f43280ec900000000000000000000000000000000000000000000000000000000815260040160405180910390fd5b5050565b60007f0000000000000000000000000000000000000000000000000000000000000000905090565b600085111580610df05750828410155b80610dfc575060008211155b80610e0657508482115b15610e3d576040517f2c15753000000000000000000000000000000000000000000000000000000000815260040160405180910390fd5b6000600387604051610e4f9190611b0d565b90815260200160405180910390209050338160000160006101000a81548173ffffffffffffffffffffffffffffffffffffffff021916908373ffffffffffffffffffffffffffffffffffffffff160217905550858160010181905550848160020181905550838160030181905550828160040181905550818160050181905550856000803373ffffffffffffffffffffffffffffffffffffffff1673ffffffffffffffffffffffffffffffffffffffff1681526020019081526020016000206000828254610f1d9190611be7565b9250508190555085600160003373ffffffffffffffffffffffffffffffffffffffff1673ffffffffffffffffffffffffffffffffffffffff1681526020019081526020016000206000828254610f739190611bb3565b9250508190555050505050505050565b6000806000806000806000600388604051610f9e9190611b0d565b908152602001604051809103902090508060000160009054906101000a900473ffffffffffffffffffffffffffffffffffffffff16816001015482600201548360030154846004015485600501549650965096509650965096505091939550919395565b60006003836040516110149190611b0d565b90815260200160405180910390209050818160070160003373ffffffffffffffffffffffffffffffffffffffff1673ffffffffffffffffffffffffffffffffffffffff16815260200190815260200160002090816110729190611dc7565b50505050565b7f000000000000000000000000000000000000000000000000000000000000000073ffffffffffffffffffffffffffffffffffffffff163373ffffffffffffffffffffffffffffffffffffffff16146110fd576040517fcf84d5e300000000000000000000000000000000000000000000000000000000815260040160405180910390fd5b806000808473ffffffffffffffffffffffffffffffffffffffff1673ffffffffffffffffffffffffffffffffffffffff168152602001908152602001600020600082825461114b9190611be7565b9250508190555080600160008473ffffffffffffffffffffffffffffffffffffffff1673ffffffffffffffffffffffffffffffffffffffff16815260200190815260200160002060008282546111a19190611bb3565b925050819055505050565b60006003846040516111be9190611b0d565b9081526020016040518091039020905060008160060160003373ffffffffffffffffffffffffffffffffffffffff1673ffffffffffffffffffffffffffffffffffffffff16815260200190815260200160002054905060008260060160003373ffffffffffffffffffffffffffffffffffffffff1673ffffffffffffffffffffffffffffffffffffffff1681526020019081526020016000208190555060008260000160009054906101000a900473ffffffffffffffffffffffffffffffffffffffff16905083826112909190611bb3565b600260008373ffffffffffffffffffffffffffffffffffffffff1673ffffffffffffffffffffffffffffffffffffffff16815260200190815260200160002060008282546112de9190611bb3565b9250508190555084600160008373ffffffffffffffffffffffffffffffffffffffff1673ffffffffffffffffffffffffffffffffffffffff16815260200190815260200160002060008282546113349190611be7565b92505081905550846000803373ffffffffffffffffffffffffffffffffffffffff1673ffffffffffffffffffffffffffffffffffffffff16815260200190815260200160002060008282546113899190611bb3565b9250508190555060007f000000000000000000000000000000000000000000000000000000000000000073ffffffffffffffffffffffffffffffffffffffff166323b872dd3330886040518463ffffffff1660e01b81526004016113ef93929190611e99565b6020604051808303816000875af115801561140e573d6000803e3d6000fd5b505050506040513d601f19601f820116820180604052508101906114329190611f08565b90508061146b576040517f43280ec900000000000000000000000000000000000000000000000000000000815260040160405180910390fd5b50505050505050565b60008060008373ffffffffffffffffffffffffffffffffffffffff1673ffffffffffffffffffffffffffffffffffffffff168152602001908152602001600020549050919050565b6000604051905090565b600080fd5b600080fd5b600080fd5b600080fd5b6000601f19601f8301169050919050565b7f4e487b7100000000000000000000000000000000000000000000000000000000600052604160045260246000fd5b611523826114da565b810181811067ffffffffffffffff82111715611542576115416114eb565b5b80604052505050565b60006115556114bc565b9050611561828261151a565b919050565b600067ffffffffffffffff821115611581576115806114eb565b5b61158a826114da565b9050602081019050919050565b82818337600083830152505050565b60006115b96115b484611566565b61154b565b9050828152602081018484840111156115d5576115d46114d5565b5b6115e0848285611597565b509392505050565b600082601f8301126115fd576115fc6114d0565b5b813561160d8482602086016115a6565b91505092915050565b60006020828403121561162c5761162b6114c6565b5b600082013567ffffffffffffffff81111561164a576116496114cb565b5b611656848285016115e8565b91505092915050565b600081519050919050565b600082825260208201905092915050565b60005b8381101561169957808201518184015260208101905061167e565b60008484015250505050565b60006116b08261165f565b6116ba818561166a565b93506116ca81856020860161167b565b6116d3816114da565b840191505092915050565b600060208201905081810360008301526116f881846116a5565b905092915050565b600073ffffffffffffffffffffffffffffffffffffffff82169050919050565b600061172b82611700565b9050919050565b61173b81611720565b811461174657600080fd5b50565b60008135905061175881611732565b92915050565b6000819050919050565b6117718161175e565b811461177c57600080fd5b50565b60008135905061178e81611768565b92915050565b600080604083850312156117ab576117aa6114c6565b5b60006117b985828601611749565b92505060206117ca8582860161177f565b9150509250929050565b6000602082840312156117ea576117e96114c6565b5b60006117f884828501611749565b91505092915050565b60008060408385031215611818576118176114c6565b5b600083013567ffffffffffffffff811115611836576118356114cb565b5b611842858286016115e8565b925050602083013567ffffffffffffffff811115611863576118626114cb565b5b61186f858286016115e8565b9150509250929050565b600080600060608486031215611892576118916114c6565b5b600084013567ffffffffffffffff8111156118b0576118af6114cb565b5b6118bc868287016115e8565b93505060206118cd8682870161177f565b925050604084013567ffffffffffffffff8111156118ee576118ed6114cb565b5b6118fa868287016115e8565b9150509250925092565b61190d8161175e565b82525050565b60006020820190506119286000830184611904565b92915050565b61193781611720565b82525050565b6000602082019050611952600083018461192e565b92915050565b60008060008060008060c08789031215611975576119746114c6565b5b600087013567ffffffffffffffff811115611993576119926114cb565b5b61199f89828a016115e8565b96505060206119b089828a0161177f565b95505060406119c189828a0161177f565b94505060606119d289828a0161177f565b93505060806119e389828a0161177f565b92505060a06119f489828a0161177f565b9150509295509295509295565b600060c082019050611a16600083018961192e565b611a236020830188611904565b611a306040830187611904565b611a3d6060830186611904565b611a4a6080830185611904565b611a5760a0830184611904565b979650505050505050565b600080600060608486031215611a7b57611a7a6114c6565b5b600084013567ffffffffffffffff811115611a9957611a986114cb565b5b611aa5868287016115e8565b9350506020611ab68682870161177f565b9250506040611ac78682870161177f565b9150509250925092565b600081905092915050565b6000611ae78261165f565b611af18185611ad1565b9350611b0181856020860161167b565b80840191505092915050565b6000611b198284611adc565b915081905092915050565b7f4e487b7100000000000000000000000000000000000000000000000000000000600052602260045260246000fd5b60006002820490506001821680611b6b57607f821691505b602082108103611b7e57611b7d611b24565b5b50919050565b7f4e487b7100000000000000000000000000000000000000000000000000000000600052601160045260246000fd5b6000611bbe8261175e565b9150611bc98361175e565b9250828201905080821115611be157611be0611b84565b5b92915050565b6000611bf28261175e565b9150611bfd8361175e565b9250828203905081811115611c1557611c14611b84565b5b92915050565b60008190508160005260206000209050919050565b60006020601f8301049050919050565b600082821b905092915050565b600060088302611c7d7fffffffffffffffffffffffffffffffffffffffffffffffffffffffffffffffff82611c40565b611c878683611c40565b95508019841693508086168417925050509392505050565b6000819050919050565b6000611cc4611cbf611cba8461175e565b611c9f565b61175e565b9050919050565b6000819050919050565b611cde83611ca9565b611cf2611cea82611ccb565b848454611c4d565b825550505050565b600090565b611d07611cfa565b611d12818484611cd5565b505050565b5b81811015611d3657611d2b600082611cff565b600181019050611d18565b5050565b601f821115611d7b57611d4c81611c1b565b611d5584611c30565b81016020851015611d64578190505b611d78611d7085611c30565b830182611d17565b50505b505050565b600082821c905092915050565b6000611d9e60001984600802611d80565b1980831691505092915050565b6000611db78383611d8d565b9150826002028217905092915050565b611dd08261165f565b67ffffffffffffffff811115611de957611de86114eb565b5b611df38254611b53565b611dfe828285611d3a565b600060209050601f831160018114611e315760008415611e1f578287015190505b611e298582611dab565b865550611e91565b601f198416611e3f86611c1b565b60005b82811015611e6757848901518255600182019150602085019450602081019050611e42565b86831015611e845784890151611e80601f891682611d8d565b8355505b6001600288020188555050505b505050505050565b6000606082019050611eae600083018661192e565b611ebb602083018561192e565b611ec86040830184611904565b949350505050565b60008115159050919050565b611ee581611ed0565b8114611ef057600080fd5b50565b600081519050611f0281611edc565b92915050565b600060208284031215611f1e57611f1d6114c6565b5b6000611f2c84828501611ef3565b91505092915050565b6000604082019050611f4a600083018561192e565b611f576020830184611904565b939250505056fea26469706673582212203a68db860edffc38ad59b795621e98ab97d04dcc25d3e1bf083324a33ac3fb4764736f6c63430008140033",
  "linkReferences": {},
  "deployedLinkReferences": {}
}